:020000040800F2
:1000000000280020A50200088D0200088F020008C9
:100010009102000893020008950200080000000009
:10002000000000000000000000000000970200082F
:1000300099020008000000009B0200089D020008D1
:10004000ED020008ED020008ED020008ED020008D4
:10005000ED020008ED020008ED020008ED020008C4
:10006000ED020008ED020008ED020008ED020008B4
:10007000ED020008ED020008ED020008ED020008A4
:10008000ED020008ED020008ED020008ED02000894
:10009000ED020008ED020008ED020008ED02000884
:1000A000ED020008ED020008ED020008ED02000874
:1000B000ED020008ED02000800000000ED0200085B
:1000C000ED0200080000000000000000ED02000842
:1000D00000000000ED020008ED0200080000000032
:1000E000ED020008ED020008ED020008000000002B
:1000F0000000000000000000000000000000000000
:0C01000000000000000000005FF808F1A3
:10010C0010B5054C237833B9044B13B10448AFF345
:10011C0000800123237010BD0C00002000000000A3
:10012C001C0B000808B5034B1BB103490348AFF384
:10013C00008008BD00000000100000201C0B00080F
:10014C0000B591B02422002107A800F0B5FC1422C0
:10015C00002101A800F0B0FC02230121069310231A
:10016C0006A8CDE90A1300F049FA014608B172B6A7
:10017C00FEE70F23CDE90300CDE90130059001A87E
:10018C0000F0FEFB08B172B6FEE711B05DF804FB9F
:10019C0030B5102487B000F0C9F8FFF7D1FF224624
:1001AC00002102A800F088FC274B21469A692748B9
:1001BC0042F020029A619A6902F020020092009AA1
:1001CC009A6942F008029A619B69002203F00803C5
:1001DC000193019B00F00CFA01220023CDE90323CB
:1001EC0002231A4802A90294059300F02BF9174C2C
:1001FC000A2501221021204600F0FAF942F2107073
:10020C0000F0B8F800221021204600F0F1F941F27C
:10021C00707000F0AFF8013DEBD1062501221021E2
:10022C00204600F0E5F941F2707000F0A3F80022CE
:10023C001021204600F0DCF942F2107000F09AF820
:10024C00013DEBD1D4E700BF00100240000C01408F
:10025C000A4B82B09A6942F001029A619A6902F0E3
:10026C0001020092009ADA6942F08052DA61DB698D
:10027C0003F080530193019B02B0704700100240C1
:10028C00FEE7FEE7FEE7FEE7FEE7704770477047C4
:10029C0000F05EB870470000FFF7FCFF0B480C49FC
:1002AC000C4A002302E0D458C4500433C4188C42C6
:1002BC00F9D3094A094C002301E013600432A2422D
:1002CC00FBD300F001FCFFF763FF70470000002038
:1002DC000C000020600B00080C0000202C000020FB
:1002EC00FEE7000038B50E4B05461A784FF47A73CA
:1002FC00B3FBF2F30B4A1068B0FBF3F000F08EF88E
:10030C00044658B90F2D09D8024629464FF0FF3044
:10031C0000F054F82046044B1D6038BD0120FCE76A
:10032C00040000200000002008000020074A08B547
:10033C001368032043F01003136000F02DF80F2016
:10034C00FFF7D0FFFFF784FF002008BD002002401C
:10035C00034A044B11681B780B441360704700BFB1
:10036C002800002004000020014B1868704700BFD3
:10037C002800002038B50446FFF7F6FF0546631C3D
:10038C001EBF044B1B78E418FFF7EEFF431BA34280
:10039C00FAD338BD0400002007490302CA6803F4ED
:1003AC00E06322F4E0621204120C134343F0BF63C7
:1003BC0043F40033CB60704700ED00E0154B30B5D3
:1003CC00DC68C4F30224C4F10703251D042B28BFE9
:1003DC000423062D4FF0FF3594BF0024033C05FA8F
:1003EC0003F321EA0303A54022EA0502A3400028F7
:1003FC0043EA0203ACBF00F16040074A4FEA031323
:10040C00DBB2ABBF00F5614000F00F0080F80033A9
:10041C00135430BD00ED00E014ED00E00138B0F1F4
:10042C00807F0BD24FF0E023F021054A586182F80F
:10043C0023100020072298611A6170470120704731
:10044C0000ED00E02DE9F74F00221646614F624B9C
:10045C00DFF888C1DFF888E10D6835FA06F402D1BF
:10046C0003B0BDE8F08F4FF0010808FA06F805EA72
:10047C00080438EA050576D14D68032D07D8013DEF
:10048C00022D00F28180DFE805F091969C00122D80
:10049C0000F0948069D8112D00F08A80FF2C98BF51
:1004AC0082464FF00F0988BF00F1040A4FEA860517
:1004BC00DAF8008088BF203D09FA05FB28EA0B0812
:1004CC0002FA05F548EA0505CAF80050D1F804A06F
:1004DC001AF0805F47D0BD6926F0030845F001058E
:1004EC00BD61BD6908F1804805F00105019508F56D
:1004FC00803806F0030B019D4FEA8B0BD8F808509F
:10050C0009FA0BF925EA0909364DA8425DD005F523
:10051C008065A8425BD005F58065A8420CBF02251A
:10052C00032505FA0BF545EA0905C8F808509D683E
:10053C001AF4801F14BF2543A5439D60DD681AF48F
:10054C00001F14BF2543A543DD605D681AF4003F0E
:10055C0014BF2543A5435D601D681AF4803F14BF8A
:10056C002543A5431D60013676E7DFF87C904D45A9
:10057C000AD015D8754507D0A9F580394D4503D05B
:10058C00A9F580194D4589D18A68E2B1012A08BFC5
:10059C00C0F810804FF0080218BFC0F814807DE737
:1005AC00DFF848904D45EFD06545ECE7CA6875E734
:1005BC00CA68043272E7CA6808326FE7CA680C323C
:1005CC006CE700226AE7042268E70025A9E7012509
:1005DC00A7E700BF001002400004014000003210E9
:1005EC000000121000080140000022100000311021
:1005FC000AB1016170470904FBE700002DE9F341E2
:10060C00054638B30368DB0710D42B689F075ED40C
:10061C002B68190700F195802B685A0700F1C180EF
:10062C00E869002840F02C81002029E0904C636898
:10063C0003F00C03042B07D0636803F00C03082BA6
:10064C000AD16368DE0307D523689C03DDD56B688C
:10065C00002BDAD1012013E06B68B3F5803F12D187
:10066C00236843F480332360FFF77EFE064623683D
:10067C009803CAD4FFF778FE801B6428F7D90320AF
:10068C0002B0BDE8F0819BB9236823F4803323606A
:10069C00236823F480232360FFF766FE0646236855
:1006AC009903B2D5FFF760FE801B6428F7D9E6E703
:1006BC00B3F5A02F236803D143F480232360CFE745
:1006CC0023F480332360236823F48023CBE7684C26
:1006DC00636813F00C0F07D0636803F00C03082B4E
:1006EC0010D16368DA030DD423689B0702D52B69FC
:1006FC00012BAFD123686A6923F0F80343EAC203E4
:10070C00236085E72A695B4B6AB101221A60FFF707
:10071C002BFE064623689F07ECD4FFF725FE801BB3
:10072C000228F7D9ABE71A60FFF71EFE06462368CE
:10073C0098077FF56DAFFFF717FE801B0228F6D9DF
:10074C009DE7AA694A4E4B4BE2B10122C3F88024C3
:10075C00FFF70AFE0446736A9B070DD54FF4FA5255
:10076C00454B1B68B3FBF2F3019300BF019B5A1E70
:10077C000192002BF9D14FE7FFF7F6FD001B022881
:10078C00E9D97CE7C3F88024FFF7EEFD0446736AD1
:10079C009F077FF541AFFFF7E7FD001B0228F6D955
:1007AC006DE7334CE369D80024D40127E36943F0A7
:1007BC008053E361E36903F080530093009B2F4E59
:1007CC003368D90518D5EB68012B26D1236A43F081
:1007DC0001032362FFF7C8FD41F288380646236AFD
:1007EC009B073FD5002F3FF41BAFE36923F08053E9
:1007FC00E36115E70027E2E7336843F48073336065
:10080C00FFF7B2FD80463368DA05DCD4FFF7ACFDA8
:10081C00A0EB08006428F6D931E7ABB9236A41F2A2
:10082C00883823F001032362236A23F00403236234
:10083C00FFF79AFD0646236A9807D3D5FFF794FD78
:10084C00801B4045F7D91AE7052B236A03D143F0E7
:10085C0004032362BAE723F001032362236A23F023
:10086C000403B6E7FFF780FD801B4045B7D906E7C8
:10087C0000100240000042420000002000700040C6
:10088C002A4C636803F00C03082B3ED00022284B43
:10089C0002281A662CD1FFF767FD064623689901DA
:1008AC0020D42B6AB3F5803F05D16268A96822F485
:1008BC0000320A436260696A62680B4322F4741264
:1008CC001343012263601A4B1A66FFF74DFD054670
:1008DC0023689A013FF5A8AEFFF746FD401B02289E
:1008EC00F6D9CCE6FFF740FD801B0228D6D9C6E628
:1008FC00FFF73AFD054623689B017FF595AEFFF7A0
:10090C0033FD401B0228F6D9B9E601283FF4B8AEF6
:10091C0063682A6A03F4803191427FF49BAE6A6A61
:10092C0003F4701393423FF47FAE93E60010024041
:10093C00000042420D4A536803F00C01082912D101
:10094C000B48C3F38341DB03405C09D55368094A68
:10095C00C3F340435043084AD35CB0FBF3F07047F9
:10096C00064B584370470348704700BF00100240C5
:10097C00440B000800127A00540B000800093D00DB
:10098C002DE9F0410D46044610B90120BDE8F08177
:10099C00444A136803F007038B4228D321688E075F
:1009AC0030D4CA0743D43F4A136803F00703AB4261
:1009BC0065D822683C4D12F0040F6CD1130706D594
:1009CC006B68226923F4605343EAC2036B60FFF740
:1009DC00B1FF6B68354AC3F30313D35CD840344B77
:1009EC001860344B1868FFF77DFC0020CEE71368C5
:1009FC0023F007030B431360136803F007038B42C8
:100A0C00C3D1CBE7284B11F0040F1EBF5A6842F438
:100A1C00E0625A60080742BF5A6842F460525A605A
:100A2C005A68A06822F0F00202435A60B9E7626883
:100A3C001D4E012A33681AD113F4003FA5D07368F8
:100A4C0041F2883823F0030313437360FFF78CFCE7
:100A5C0007467368626803F00C03B3EB820FA2D0F5
:100A6C00FFF782FCC01B4045F3D903208EE7022A16
:100A7C0002D113F0007FE1E713F0020FDEE71368F9
:100A8C0023F007032B431360136803F00703AB42F7
:100A9C007FF47BAF8DE76B68E16823F4E0630B4375
:100AAC006B608BE70020024000100240340B000802
:100ABC00000000200800002003460244934200D1AD
:100ACC00704703F8011BF9E770B500260C4D0D4C6F
:100ADC00641BA410A64209D100F01AF800260A4D96
:100AEC000A4C641BA410A64205D170BD55F8043BFA
:100AFC0098470136EEE755F8043B98470136F2E784
:100B0C00580B0008580B0008580B00085C0B000829
:100B1C00F8B500BFF8BC08BC9E467047F8B500BFDE
:080B2C00F8BC08BC9E467047AE
:100B34000000000000000000010203040607080989
:100B440002030405060708090A0B0C0D0E0F10100A
:040B5400010200009A
:040B5800310100085F
:040B5C000D0100087F
:0C0B60000024F400010000001000000060
:04000005080002A548
:00000001FF
